:100000003FC159C158C157C156C155C154C153C14F
:10001000FFC151C150C150C179C14DC14CC14BC18B
:100020004AC149C148C108000000BE922449123E9D
:10003000ABAAAA2ABECDCCCC4C3E00000080BEAB01
:10004000AAAAAA3E00000000BF000000803F0000F6
:10005000000000084178D3BB4387D1133D190E3C03
:10006000C3BD4282AD2B3E68EC8276BED98FE1A93A
:100070003E4C80EFFFBE01C4FF7F3F000000000048
:10008000000006000D00130019001F0025002C00C1
:10009000320038003E0044004A00500056005C0028
:1000A000620067006D00730078007E0083008800A6
:1000B0008E00930098009D00A200A700AB00B00046
:1000C000B400B900BD00C100C500C900CD00D0001A
:1000D000D400D700DB00DE00E100E400E700E90027
:1000E000EC00EE00F000F200F400F600F700F9007A
:1000F000FA00FB00FC00FD00FE00FE00FF00FF0018
:10010000FF00FF00FF00FE00FE00FD00FC00FB0002
:10011000FA00F900F700F600F400F200F000EE003B
:10012000EC00E900E700E400E100DE00DB00D700BE
:10013000D400D000CD00C900C500C100BD00B90089
:10014000B400B000AB00A700A2009D00980093008F
:100150008E00880083007E00780073006D006700C9
:1001600062005C00560050004A0044003E00380027
:1001700032002C0025001F00190013000D0006009E
:100180000000FAFFF3FFEDFFE7FFE1FFDAFFD4FF26
:10019000CEFFC8FFC2FFBCFFB6FFB0FFAAFFA4FF9F
:1001A0009EFF98FF93FF8DFF87FF82FF7CFF77FF05
:1001B00072FF6DFF68FF63FF5EFF59FF54FF4FFF43
:1001C0004BFF47FF42FF3EFF3AFF36FF32FF2FFF54
:1001D0002BFF28FF24FF21FF1EFF1BFF19FF16FF27
:1001E00013FF11FF0FFF0DFF0BFF09FF08FF06FFB5
:1001F00005FF04FF03FF02FF01FF01FF00FF00FFF7
:1002000000FF00FF00FF01FF01FF02FF03FF04FFEB
:1002100005FF06FF08FF09FF0BFF0DFF0FFF11FF92
:1002200013FF16FF19FF1BFF1EFF21FF24FF28FFEE
:100230002BFF2FFF32FF36FF3AFF3EFF42FF47FF03
:100240004BFF4FFF54FF59FF5EFF63FF68FF6DFFD9
:1002500072FF77FF7CFF82FF87FF8DFF93FF98FF80
:100260009EFFA4FFAAFFB0FFB6FFBCFFC2FFC8FFFE
:10027000CEFFD4FFDAFFE1FFE7FFEDFFF3FFFAFF68
:1002800011241FBECFE5D4E0DEBFCDBF11E0A0E654
:10029000B0E0E4E5FDE102C005900D92A036B107A3
:1002A000D9F712E0A0E6B1E001C01D92AC3AB10767
:1002B000E1F76BD94DCDA4CE1F920F920FB60F92DE
:1002C00011242F938F939F93EF93FF939BB12CB1A6
:1002D000E091A201EF5FEF718091A301E81711F4A3
:1002E00082E008C0892F8871E093A201F0E0E05815
:1002F000FE4F20838093A401FF91EF919F918F91F6
:100300002F910F900FBE0F901F9018951F920F9274
:100310000FB60F9211248F939F93EF93FF939091B9
:10032000A0018091A101981761F0E091A101EF5F18
:10033000EF71E093A101F0E0E05AFE4F80818CB9AB
:1003400001C05598FF91EF919F918F910F900FBE33
:100350000F901F9018959C011092A0011092A1017E
:100360001092A2011092A30197FF03C082E08BB903
:100370003F7730BD29B988E98AB986E880BD0895FC
:100380009091A2018091A301981719F420E031E027
:1003900012C0E091A301EF5FEF71E093A301F0E0E1
:1003A000E058FE4F30812091A401922F80E0AC01F3
:1003B000430F511D9A01C9010895282F9091A00162
:1003C0009F5F9F718091A1019817E1F3E92FF0E001
:1003D000E05AFE4F20839093A001559A0895CF9341
:1003E000DF93EC0102C02196E8DF88818823D9F7EA
:1003F000DF91CF910895CF93DF93EC0101C0DDDF52
:10040000FE01219684918823D1F7DF91CF91089541
:100410001F920F920FB60F9211248F939F9380918A
:10042000AA019091AB0101969093AB018093AA0130
:1004300081E08093A5019F918F910F900FBE0F9047
:100440001F9018952F923F924F925F926F927F92DA
:100450008F929F92AF92BF92CF92DF92EF92FF92D4
:100460000F931F93DF93CF93CDB7DEB7C050D1402A
:100470000FB6F894DEBF0FBECDBFDE011196E0EEE1
:10048000F0E080E801900D928150E1F7DE01AF5776
:10049000BF4FE0E6F0E080E801900D928150E1F777
:1004A000662477244424552431E8232E312C2C0E45
:1004B0003D1EE1E0F0E0EC0FFD1FE40DF51DC080F6
:1004C000D180E280F3805301AA0CBB1C8501045D3E
:1004D0001D4FF80160817181882777FD8095982FE5
:1004E000DAD9A7019601D2DAA3D9F8017183608322
:1004F000830100951095005C1F4F000F111F8CE2C7
:10050000882E82E0982E800E911EF4016081718108
:10051000882777FD8095982FBED9A7019601B6DA76
:1005200087D9F40171836083F101E40DF51DC0806A
:10053000D180E280F3808CEA91E0A80EB91EF5012B
:1005400060817181882777FD8095982FA4D9A701B4
:1005500096019CDA6DD9F5017183608304551E4FB5
:10056000F80160817181882777FD8095982F93D954
:10057000A70196018BDA5CD9F80171836083089436
:10058000611C711C84E090E0480E591E90E26916CF
:10059000710409F08ECFC050DF4F0FB6F894DEBF64
:1005A0000FBECDBFCF91DF911F910F91FF90EF90C4
:1005B000DF90CF90BF90AF909F908F907F906F9083
:1005C0005F904F903F902F9008958091AA01909155
:1005D000AB010895EF92FF920F931F93C1D80BDAEE
:1005E00020E030E040EA51E451DAA801970150D808
:1005F0001FD9CB011F910F91FF90EF9008954F925B
:100600005F926F927F928F929F92AF92BF92CF92A2
:10061000DF92EF92FF920F931F93CF93DF93C0E08F
:10062000D0E044245524F201EE0FFF1FDF01A45D4A
:10063000BD4F6D907C901197AD90BC90E455FE4FEE
:100640002081318160817181882777FD8095982F85
:10065000442737FD4095542FF8DA7B018C01CC24D8
:10066000B7FCC094DC2C882477FC8094982CC601BD
:10067000B501A4019301E9DAE60EF71E081F191F60
:100680005CE015950795F794E7945A95D1F7CE0D50
:10069000DF1D0894411C511C81E24816510419F6D3
:1006A000CC0FDD1FBE0180E090E0F3D856DAC0D851
:1006B0007B018C016091A6017091A7018091A80136
:1006C0009091A9012AE63CEB44E75FE3DFD95B01A7
:1006D0006C018EEF9FEFE80EF91EB701882777FDBA
:1006E0008095982FD8D820E639E344E35DE3CED94E
:1006F0009B01AC01C601B501CBD76093A6017093F5
:10070000A7018093A8019093A90120E030E040E088
:1007100050E022D8882364F480E090E0A0E0B0E0CC
:100720008093A6019093A701A093A801B093A9017B
:100730006091A6017091A7018091A8019091A901F3
:1007400077D8CB01DF91CF911F910F91FF90EF9060
:10075000DF90CF90BF90AF909F908F907F906F90E1
:100760005F904F9008954F925F926F927F928F9219
:100770009F92AF92BF92CF92DF92EF92FF920F9330
:100780001F93CF93DF932C01C0E0D0E0FE01EE0F6A
:10079000FF1FDF01A45DBD4F6D907C901197AD9060
:1007A000BC90E455FE4F20813181608171818827A2
:1007B00077FD8095982F442737FD4095542F45DAD3
:1007C0007B018C01CC24B7FCC094DC2C882477FC02
:1007D0008094982CC601B501A401930136DAE60E87
:1007E000F71E081F191F7CE015950795F794E794ED
:1007F0007A95D1F7C801B7014ED8AFD99B01AC01AA
:1008000047D7F20161937193819391932F012196C0
:10081000C132D10509F0BACFDF91CF911F910F916D
:10082000FF90EF90DF90CF90BF90AF909F908F9010
:100830007F906F905F904F9008950F931F930CE2FD
:1008400012E0C80160E470E075D0C8016CEA71E0A4
:1008500046E050E015D21F910F910895EF92FF925C
:100860000F931F93CF93DF931092AB011092AA01C5
:1008700083E0E3D51092A50100E014E0EE24FF240C
:10088000C0E0D0E08091A5018823E1F31092A5019A
:10089000DED59C01801791070CF48C01E216F3065B
:1008A0000CF47901201B310BC701801B910B62E016
:1008B00070E0EAD9261B370BFE01EE0FFF1FDF01A8
:1008C000A45DBD4F11963C932E93E455FE4F1182CB
:1008D00010822196C034D105A9F6DF91CF911F91E6
:1008E0000F91FF90EF90089583E0A7D5BBD58BE5DE
:1008F00090E097BD86BD82E08FBD88E18EBD8EB54C
:1009000082608EBD89B7846089BF80E090E0FC0181
:10091000EE0FFF1FDF01A45DBD4F11961C921E92CA
:10092000E455FE4F1182108201968034910579F7CB
:1009300078940895EF92FF920F931F93CF93DF93D4
:100940007C018B0161507040EC01A1E0B0E040E01F
:1009500050E021C0980135952795C901840F951F56
:1009600068177907C4F3C901019748235923420F37
:10097000531FA417B5076CF48A819B81FA01EE0F0F
:10098000FF1FEE0DFF1D208131813B832A83918360
:100990008083119622966A177B07E4F6DF91CF9148
:1009A0001F910F91FF90EF9008952F923F924F92D9
:1009B0005F926F927F928F929F92AF92BF92CF92EF
:1009C000DF92EF92FF920F931F93DF93CF93CDB7F8
:1009D000DEB762970FB6F894DEBF0FBECDBF9E871D
:1009E0008D87DB01FC01C080D180828193813C0135
:1009F0006C0C7D1CC81AD90A248135813A87298755
:100A00004681578158874F83420F531F2085318578
:100A100082859385BC01620F731F7C836B83F90110
:100A2000E81BF90BFE83ED83ED85FE852484358478
:100A3000868597859C01220D331D3A832983281AC8
:100A4000390A9A01260D371D641A750A49815A819F
:100A5000460F571FCA01820F931F91838083241B67
:100A6000350B31872087AD90BC90119712968D91F0
:100A70009C9113972C014A0C5B1CA81AB90A149676
:100A80006D917C91159716968D919C911797AC015D
:100A9000460F571FFB01E81BF90B18960D911C918F
:100AA00019971A968D919C911B974C01800E911E5F
:100AB000081B190B1C962D913C911D971E968D912C
:100AC0009C911F977C01E20EF31EB901681B790B04
:100AD0007C876B879A01240D351D441A550AA7019E
:100AE000480D591D8E189F08CA01820F931F119639
:100AF0009C938E93241B350B19963C932E93189739
:100B00002D813E812219330985EBE82EF12CA701B6
:100B10003502902D249F812D3403800D911D5203A9
:100B2000800D911D1124AC014C0D5D1DC81AD90A10
:100B3000600F711F97017302902D629F812D7203C8
:100B4000800D911D3603800D911D11249F01280FEA
:100B5000391FBF01681B790BC901840F951FED85F3
:100B6000FE8597878687421B530B53834283C401BC
:100B7000860D971D95878487681879087582648229
:100B8000CB018C0D9D1D97838683C61AD70AD38609
:100B9000C2862B853C85021B130BA7011502902DE5
:100BA000049F812D1403800D911D5003800D911D14
:100BB00011249C012A0D3B1DA81AB90A6D817E8162
:100BC000260E371EA101B7015702902D469F812D99
:100BD0005603800D911D7403800D911D11246F81AA
:100BE0007885E985FA856E1B7F0BAC01460F571F90
:100BF000681B790BCB01820F931F1F969C938E93DA
:100C00001E97261B370B13963C932E931297298120
:100C10003A816B817C81261B370BC201820F931FA7
:100C20001D969C938E931C97421A530A15965C92BC
:100C30004E921497CA018A0D9B1D17969C938E9312
:100C40001697A41AB50A1B96BC92AE921A97629692
:100C50000FB6F894DEBF0FBECDBFCF91DF911F91CD
:100C60000F91FF90EF90DF90CF90BF90AF909F904B
:100C70008F907F906F905F904F903F902F9008954E
:100C80002F923F924F925F926F927F928F929F929C
:100C9000AF92BF92CF92DF92EF92FF920F931F938A
:100CA000DF93CF93CDB7DEB7C455D0400FB6F894DD
:100CB000DEBF0FBECDBF27969FAF8EAF2797299679
:100CC0007FAF6EAF29972B965FAF4EAF2B9781E02A
:100CD00090E0A0E0B0E02A960FAC2A9704C0880FFD
:100CE000991FAA1FBB1F0A94D2F725969FAF8EAFFC
:100CF00025973A0101E0602277242A961FAD2A97B2
:100D000010FD08C02796AEACBFAC27972B018824F6
:100D1000992483C02796AEACBFAC279729960EAD19
:100D20001FAD2997882499240DC0C501B8013DDE67
:100D300028E030E0820E931E60E170E0A60EB71E40
:100D4000005F1F4F25968EAD9FAD2597881699069B
:100D500064F36BC0D5014D915C91119712968D9102
:100D60009C9113977C01E40EF51E481B590B1496B9
:100D70006D917C91159716968D919C9117976C01AA
:100D8000C60ED71E681B790BF201808191812281EA
:100D90003381D901A80FB91F821B930B268037809E
:100DA000248135818901020D131D221A330A9C0109
:100DB000260F371F33832283861B970B97838683E7
:100DC000C8018A0F9B1F91838083A01BB10BB58341
:100DD000A483C101840F951FD50113969C938E9314
:100DE00012974219530917965C934E931697C601B2
:100DF0008E0D9F1D11969C938E93EC18FD081596F1
:100E0000FC92EE921497E4E0F0E08E0E9F1E08E054
:100E100010E0A00EB11E400E511E25962EAD3FAD26
:100E20002597821693060CF495CFB3016C5F7F4F24
:100E300023967FAF6EAF2397DAC241E050E060E0C7
:100E400070E022960FAC229704C0440F551F661F16
:100E5000771F0A94D2F721965FAF4EAF2197CA0150
:100E600095958795959587959EAF8DAF9C01220F9F
:100E7000331F820F931F880F991F2996AEADBFAD08
:100E80002997A80FB91FBAA3A9A32796EEADFFAD66
:100E90002797E80FF91FFCA3EBA3C901880F991F3F
:100EA00029960EAD1FAD2997080F191F1A8B098BB4
:100EB0002796AEADBFAD2797A80FB91FBC87AB87EC
:100EC0002996EEADFFAD2997E20FF31FFA87E98768
:100ED00027960EAD1FAD2797020F131F18870F839C
:100EE00080E091E0BA01D0D6CB019B01220F331FE5
:100EF0003E832D83BC01660F771F660F771F7C83AF
:100F00006B83280F391F220F331F3A8329831CAEAE
:100F10001BAE1A8E198E188E1F8A1E8A1D8A1C8A75
:100F20001B8A21968EAD9FAD2197880F991F6396DE
:100F30009FAF8EAF6397909581959F4F2D969FAFF2
:100F40008EAF2D9742C2EF89F88DE058FF4FA591E3
:100F5000B491BAAFA9AFED89FE89E058FF4F059172
:100F6000149118AF0FABEB89FC89E058FF4F259126
:100F700034913EAB2DABEF89F88DE050FF4F65917A
:100F800074917CAB6BABED89FE89E050FF4F85918E
:100F900094919AAB89ABEB89FC89E050FF4FA59106
:100FA000B491B8ABAFA72796EEADFFAD2797098DEB
:100FB0001A8DE00FF11FF8A3EF8F29962EAD3FADEC
:100FC0002997200F311F3E8F2D8F6F8178857CA749
:100FD0006BA789859A859AA789A7AB85BC85B8A791
:100FE000AFA3E989FA89FEA3EDA30BA11CA11E877B
:100FF0000D8729A13AA1388B2F871EA61DA663C194
:101000006BA47CA42D966EAD7FAD2D97660E771EDA
:10101000D3014D915C9129A43AA4260E371EF1010B
:101020002081318109A91AA95102702D409F612D9B
:101030005003600D711D1403600D711D11240FA963
:1010400018AD3102902D209F812D3003800D911D10
:101050001203800D911D1124681B790B2F967FAF11
:101060006EAF2F9769A97AA93702902D269F812DFF
:101070003603800D911D7203800D911D11245102C4
:10108000B02D409FA12D5003A00DB11D1403A00D44
:10109000B11D1124A80FB91F4FA058A42D968EADD5
:1010A0009FAD2D97480E591EF201408151810DA12F
:1010B0001EA1080F191F1C8F0B8FF8012081318191
:1010C0000BA91CA95102702D409F612D5003600D8A
:1010D000711D1403600D711D11247B0109AD1AAD42
:1010E0003102902D209F812D3003800D911D120320
:1010F000800D911D1124E81AF90A6BA97CA9370209
:10110000902D269F812D3603800D911D7203800D39
:10111000911D11245102F02D409FE12D5003E00D4F
:10112000F11D1403E00DF11D1124E80FF91F659660
:10113000FFAFEEAF6597CD84DE842D960EAD1FAD6B
:101140002D97C00ED11EF6010190F081E02D619621
:10115000FFAFEEAF61978F849888800E911EF401E7
:10116000A080B18061960EAD1FAD61972FA538A903
:101170001302502D029F412D1203400D511D3003CB
:10118000400D511D1124B5010DA91EA97102902D0C
:10119000609F812D7003800D911D1603800D911DA0
:1011A0001124481B590B7302902D629F812D7203ED
:1011B000800D911D3603800D911D112461962EAD79
:1011C0003FAD61973102702D209F612D3003600D7E
:1011D000711D1203600D711D1124680F791F8B01A1
:1011E00065968EAD9FAD6597081B190B680F791F2B
:1011F000AF8CB8A02D96EEADFFAD2D97AE0EBF1EF5
:10120000F50120813181C9012F96EEADFFAD2F97F9
:101210008E1B9F0BE20FF31F2F96FFAFEEAF2F97A2
:101220009C01200F311FF30131832083801B910B20
:10123000F601918380838701041B150B4E0D5F1D02
:10124000ED8CFE8C2D962EAD3FAD2D97E20EF31E4C
:10125000F70120813181C9018A1B9B0BA20FB31FAB
:101260009C01200F311FF10131832083801B910BE2
:10127000F401918380832F968EAD9FAD2F97840FBD
:10128000951FF501918380832F960EAD1FAD2F978B
:10129000041B150BF20111830083CD01860F971FEC
:1012A000F70191838083A61BB70BEB8DFC8DB18377
:1012B000A0830DA51EA521962EAD3FAD2197020F4F
:1012C000131F1EA70DA76BA57CA563968EAD9FADC2
:1012D0006397680F791F7CA76BA7A9A5BAA5A80F6C
:1012E000B91FBAA7A9A7EFA1F8A5E80FF91FF8A79A
:1012F000EFA30DA11EA1080F191F1EA30DA32D857D
:101300003E85280F391F3E872D876F857889680FA6
:10131000791F788B6F87AF8DB8A1A80FB91FB8A3BD
:10132000AF8FED8DFE8DE80FF91FFE8FED8F0DA5B0
:101330001EA525962EAD3FAD2597021713070CF479
:101340005FCE6BAD7CAD6F5F7F4F7CAF6BAF898D38
:101350009A8D02969A8F898FA9A1BAA11296BAA3E3
:10136000A9A3EBA1FCA13296FCA3EBA309891A89DE
:101370000E5F1F4F1A8B098B2B853C852E5F3F4FCD
:101380003C872B8769857A856E5F7F4F7A8769876F
:101390008F819885029698878F83AF89B88DED816C
:1013A000FE81AE0FBF1FB88FAF8B0D891E892B81B9
:1013B0003C81020F131F1E8B0D8B6B897C898981E9
:1013C0009A81680F791F7C8B6B8BABADBCADEDAD9B
:1013D000FEADAE17BF070CF4B6CD23960EAD1FAD14
:1013E00023970E5F1F4F23961FAF0EAF23972396B1
:1013F0002EAD3FAD23972B966EAD7FAD2B97621729
:1014000073070CF01ACDCC5ADF4F0FB6F894DEBF3D
:101410000FBECDBFCF91DF911F910F91FF90EF9045
:10142000DF90CF90BF90AF909F908F907F906F9004
:101430005F904F903F902F900895379897B1987F85
:1014400097B997B18770892B87B9379A0895369ADB
:10145000349BFECF24B135B1349AC9010895EDDF34
:10146000F6DF089517B816B887B187B9329A3D9854
:10147000379A08951F9317B186E0DFDF37983B9ABC
:10148000379A88EE93E00197F1F7E1DF379817B9C3
:10149000379A9C0140E050E060E070E584E190E024
:1014A00006D4CA01B901F7D120E030E04AE754E49C
:1014B00057D11F910895EF92FF920F931F939C01B4
:1014C000009729F420E030E040E050E013C07B01B9
:1014D00000E010E0C801B7014AE0660F771F881FDF
:1014E000991F4A95D1F740E050E0E1D32E193F090A
:1014F000400B510BB901CA011F910F91FF90EF9062
:101500000895EF92FF920F931F937A018B0100973A
:1015100029F4E0E070E080E060E00EC0BC0180E013
:1015200090E0B7D1A8019701B1D220E030E040E8C7
:101530005AE3ACD2E62F692F2E2F372F482F562F84
:10154000B901CA011F910F91FF90EF9008959B017F
:10155000AB01A5E0440F551FAA95E1F7220F331FF9
:10156000420F531F9C01E5E0880F991FEA95E1F7B0
:10157000220F331F821B930B480F591F66E05695AD
:1015800047956A95E1F7CA0108954F925F926F926D
:101590007F928F929F92AF92BF92CF92DF92EF9203
:1015A000FF920F931F93DF93CF93CDB7DEB7C4584D
:1015B000D0400FB6F894DEBF0FBECDBF87E690E0F7
:1015C000CAD6789457DF4B015C018ED9FE01319663
:1015D00084E8DF011D928A95E9F73F0125E8422E54
:1015E000512C4C0E5D1E3AD928D92CD7C301BBD83B
:1015F00006D86C01181619062CF066E976E285EA21
:1016000099E303C0B501A4017CDF26E936E245EA8F
:1016100059E30F2EF0E0EF2EF0E0FF2EF0E00F2F59
:10162000F2E41F2FF02DD6D77C018301F8016081F1
:1016300071818281938120E030E048EC52E426D22F
:10164000D8016D937D938D939C931397F6D0DC0115
:10165000CB01B3D6F80161917191819191918F0184
:10166000ECD0872FAAD60415150501F78C2DA5D629
:101670008D2D992787FD9A95A0D68E2D9ED68F2DDC
:10168000992787FD9A9599D68AE097D6ACCF50587E
:10169000BB27AA270ED075C166D130F06BD120F0E0
:1016A00031F49F3F11F41EF45BC10EF4E095E7FBAB
:1016B00051C1E92F77D180F3BA1762077307840706
:1016C000950718F071F49EF58FC10EF4E0950B2E7E
:1016D000BA2FA02D0B01B90190010C01CA01A00184
:1016E0001124FF27591B99F0593F50F4503E68F1DF
:1016F0001A16F040A22F232F342F4427585FF3CF20
:10170000469537952795A795F0405395C9F77EF4F0
:101710001F16BA0B620B730B840BBAF09150A1F039
:10172000FF0FBB1F661F771F881FC2F70EC0BA0FBF
:10173000621F731F841F48F4879577956795B79547
:10174000F7959E3F08F0B3CF9395880F08F099273F
:10175000EE0F979587950895D9D008F481E0089504
:101760000CD00FC107D140F0FED030F021F45F3F24
:1017700019F0F0C0511139C1F3C014D198F3992375
:10178000C9F35523B1F3951B550BBB27AA27621745
:101790007307840738F09F5F5F4F220F331F441F8A
:1017A000AA1FA9F333D00E2E3AF0E0E830D09150C2
:1017B0005040E695001CCAF729D0FE2F27D0660FAF
:1017C000771F881FBB1F261737074807AB07B0E8EE
:1017D00009F0BB0B802DBF01FF2793585F4F2AF004
:1017E0009E3F510568F0B6C000C15F3FECF3983EE4
:1017F000DCF3869577956795B795F7959F5FC9F761
:10180000880F911D9695879597F90895E1E0660FE9
:10181000771F881FBB1F621773078407BA0720F062
:10182000621B730B840BBA0BEE1F88F7E0950895CB
:1018300004D06894B111D9C00895BCD088F09F57E6
:1018400090F0B92F9927B751A0F0D1F0660F771F0C
:10185000881F991F1AF0BA95C9F712C0B13081F0EC
:10186000C3D0B1E00895C0C0672F782F8827B85F34
:1018700039F0B93FCCF3869577956795B395D9F74D
:101880003EF490958095709561957F4F8F4F9F4F57
:101890000895E89409C097FB3EF490958095709563
:1018A00061957F4F8F4F9F4F9923A9F0F92F96E9AC
:1018B000BB279395F695879577956795B795F11121
:1018C000F8CFFAF4BB0F11F460FF1BC06F5F7F4FBE
:1018D0008F4F9F4F16C0882311F096E911C07723D0
:1018E00021F09EE8872F762F05C0662371F096E8D9
:1018F000862F70E060E02AF09A95660F771F881FA8
:10190000DAF7880F9695879597F90895990F00084B
:10191000550FAA0BE0E8FEEF16161706E807F907C1
:10192000C0F012161306E407F50798F0621B730B5C
:10193000840B950B39F40A2661F0232B242B252BDD
:1019400021F408950A2609F4A140A6958FEF811D80
:10195000811D089597F99F6780E870E060E0089521
:101960009FEF80EC089500240A94161617061806B7
:101970000906089500240A94121613061406050693
:101980000895092E0394000C11F4882352F0BB0F24
:1019900040F4BF2B11F460FF04C06F5F7F4F8F4F87
:1019A0009F4F089557FD9058440F551F59F05F3FC2
:1019B00071F04795880F97FB991F61F09F3F79F071
:1019C00087950895121613061406551FF2CF4695F3
:1019D000F1DF08C0161617061806991FF1CF869575
:1019E0007105610508940895E894BB276627772759
:1019F000CB0197F908950AD029ED3BE54EED5EE362
:101A000045C00EF0E8C0ACCF6894A4CFD3DFC8F3D4
:101A10009923D1F3C6F3DF93CF931F930F93FF92D4
:101A2000C92FDD2788232AF02197660F771F881F8B
:101A3000DAF720E030E040E85FEB9FE3883920F000
:101A4000803E30F021968F7723DEE6E2F0E003C09F
:101A50001FDEE3E5F0E0D4D08B01BE01EC01FB2EEC
:101A60006F5771097595771F880B990B14DF28E163
:101A700032E741E35FE316D0AF2D9801AE01FF904E
:101A80000F911F91CF91DF9114DE7BCF0BD079CFD7
:101A90006ADF28F06FDF18F0952309F05BCF60CF85
:101AA0001124A3CF7FDFA0F3959FD1F3950F50E0D2
:101AB000551F629FF001729FBB27F00DB11D639F00
:101AC000AA27F00DB11DAA1F649F6627B00DA11DA6
:101AD000661F829F2227B00DA11D621F739FB00D4C
:101AE000A11D621F839FA00D611D221F749F3327BC
:101AF000A00D611D231F849F600D211D822F762F55
:101B00006A2F11249F5750408AF0E1F088234AF051
:101B1000EE0FFF1FBB1F661F771F881F915050409D
:101B2000A9F79E3F510570F015CF5FCF5F3FECF3F3
:101B3000983EDCF3869577956795B795F795E79589
:101B40009F5FC1F7FE2B880F911D9695879597F99A
:101B5000089511F40EF404CF3EC02CDFD0F3992386
:101B6000D9F3CEF39F57550B87FF43D00024A0E64F
:101B700040EA900180585695979528F4805C660F4E
:101B8000771F881F20F026173707480730F4621B9D
:101B9000730B840B202931294A2BA695179407949F
:101BA000202531254A2758F7660F771F881F20F018
:101BB00026173707480730F4620B730B840B200D90
:101BC000311D411DA09581F7B901842F9158880FCF
:101BD0009695879508959F3F31F0915020F4879511
:101BE00077956795B795880F911D9695879597F985
:101BF000089591505040660F771F881FD2F70895BF
:101C0000DF93CF931F930F93FF92EF92DF927B01AD
:101C10008C01689405C0DA2EEF0144DFFE01E894E0
:101C2000A5912591359145915591AEF3EF0141DD97
:101C3000FE019701A801DA9479F7DF90EF90FF9009
:101C40000F911F91CF91DF910895629FD001739FF3
:101C5000F001829FE00DF11D649FE00DF11D929F48
:101C6000F00D839FF00D749FF00D659FF00D992787
:101C7000729FB00DE11DF91F639FB00DE11DF91FAB
:101C8000BD01CF011124089597FB092E07260AD024
:101C900077FD04D027D006D000201AF47095619506
:101CA0007F4F0895F6F7909581959F4F089597FB84
:101CB000092E05260ED057FD04D028D00AD0001CCE
:101CC00038F450954095309521953F4F4F4F5F4FD9
:101CD0000895F6F790958095709561957F4F8F4F99
:101CE0009F4F0895AA1BBB1B51E107C0AA1FBB1F32
:101CF000A617B70710F0A61BB70B881F991F5A9598
:101D0000A9F780959095BC01CD010895A1E21A2E06
:101D1000AA1BBB1BFD010DC0AA1FBB1FEE1FFF1F8F
:101D2000A217B307E407F50720F0A21BB30BE40BDF
:101D3000F50B661F771F881F991F1A9469F7609526
:101D40007095809590959B01AC01BD01CF010895E0
:041D5000F894FFCF35
:101D5400000000009356013F8F582C3FD724103FBA
:101D6400EDF7C73E71D6613EC347883D3CFC90BD4C
:101D740064F445BEC00B9BBE3916CDBE4870F9BE97
:101D8400181810BFFF9B20BF15202EBFB77038BF97
:101D94007E4F3FBF617942BF93AE41BFD8BC3CBFC9
:101DA400C98C33BFED3126BFB5FC14BFC98B00BF4E
:101DB40022B0D3BEA869A4BE25F06CBE10821ABEA0
:101DC4001E2DAFBDA27020BD63F449BCC887D1BA33
:101DD4000000000009B2143DD290033F5CD7573F86
:101DE400C3F4823F9D7E8E3FEF4C933F5EE3933F6F
:101DF400A696913FFF228D3F52F6863FDFAA7E3F93
:101E0400ACDF6C3F10D6583F8DD3423F78222B3F36
:101E14003E1A123FE24CF03E7999BB3E9562873EF2
:101E2400A6612A3EC81D9B3D7B7377BBAD178CBD55
:101E34009A2DEBBD1F3010BE695815BEDF0607BED4
:101E4400FFFCD3BD34138BBDCEB709BDB2D912BCD0
:00000001FF
