:100000003FC159C158C157C156C155C154C153C14F
:1000100000C251C150C150C17BC14DC14CC14BC187
:100020004AC149C148C108000000BE922449123E9D
:10003000ABAAAA2ABECDCCCC4C3E00000080BEAB01
:10004000AAAAAA3E00000000BF000000803F0000F6
:10005000000000084178D3BB4387D1133D190E3C03
:10006000C3BD4282AD2B3E68EC8276BED98FE1A93A
:100070003E4C80EFFFBE01C4FF7F3F000000000048
:10008000000006000D00130019001F0025002C00C1
:10009000320038003E0044004A00500056005C0028
:1000A000620067006D00730078007E0083008800A6
:1000B0008E00930098009D00A200A700AB00B00046
:1000C000B400B900BD00C100C500C900CD00D0001A
:1000D000D400D700DB00DE00E100E400E700E90027
:1000E000EC00EE00F000F200F400F600F700F9007A
:1000F000FA00FB00FC00FD00FE00FE00FF00FF0018
:10010000FF00FF00FF00FE00FE00FD00FC00FB0002
:10011000FA00F900F700F600F400F200F000EE003B
:10012000EC00E900E700E400E100DE00DB00D700BE
:10013000D400D000CD00C900C500C100BD00B90089
:10014000B400B000AB00A700A2009D00980093008F
:100150008E00880083007E00780073006D006700C9
:1001600062005C00560050004A0044003E00380027
:1001700032002C0025001F00190013000D0006009E
:100180000000FAFFF3FFEDFFE7FFE1FFDAFFD4FF26
:10019000CEFFC8FFC2FFBCFFB6FFB0FFAAFFA4FF9F
:1001A0009EFF98FF93FF8DFF87FF82FF7CFF77FF05
:1001B00072FF6DFF68FF63FF5EFF59FF54FF4FFF43
:1001C0004BFF47FF42FF3EFF3AFF36FF32FF2FFF54
:1001D0002BFF28FF24FF21FF1EFF1BFF19FF16FF27
:1001E00013FF11FF0FFF0DFF0BFF09FF08FF06FFB5
:1001F00005FF04FF03FF02FF01FF01FF00FF00FFF7
:1002000000FF00FF00FF01FF01FF02FF03FF04FFEB
:1002100005FF06FF08FF09FF0BFF0DFF0FFF11FF92
:1002200013FF16FF19FF1BFF1EFF21FF24FF28FFEE
:100230002BFF2FFF32FF36FF3AFF3EFF42FF47FF03
:100240004BFF4FFF54FF59FF5EFF63FF68FF6DFFD9
:1002500072FF77FF7CFF82FF87FF8DFF93FF98FF80
:100260009EFFA4FFAAFFB0FFB6FFBCFFC2FFC8FFFE
:10027000CEFFD4FFDAFFE1FFE7FFEDFFF3FFFAFF68
:1002800011241FBECFE5D4E0DEBFCDBF11E0A0E654
:10029000B0E0E6E8FAE102C005900D92A036B107A1
:1002A000D9F722E0A0E6B1E001C01D92AC3AB20756
:1002B000E1F726D8E6CBA4CE1F920F920FB60F928D
:1002C00011242F938F939F93EF93FF938BB19CB146
:1002D0008871E0916201EF5FEF7120916101E21797
:1002E00039F0E0936201F0E0EB59FE4F908301C0DA
:1002F00082E090916001982B90936001FF91EF91C3
:100300009F918F912F910F900FBE0F901F90189576
:100310001F920F920FB60F9211248F939F93EF931A
:10032000FF939091640180916301981761F0E091CF
:100330006301EF5FEF71E0936301F0E0EB57FE4F75
:1003400080818CB901C05598FF91EF919F918F9159
:100350000F900FBE0F901F9018951092640110928D
:100360006301109262011092610197FF02C022E0C6
:100370002BB9907890BD89B988E98AB986E880BDA3
:10038000089590916201809161019817A9F0909170
:1003900061019F5F9F71E92FF0E0EB59FE4F2081D3
:1003A00080916001909361011092600190E0982F1C
:1003B0008827820F911D089580E091E00895909123
:1003C00064019F5F9F71209163019217E1F3E92F10
:1003D000F0E0EB57FE4F808390936401559A0895A7
:1003E000CF93DF93EC018991882311F0E8DFFBCFF5
:1003F000DF91CF910895CF93DF93FC018491EF01BA
:100400002196882319F0DBDFFE01F8CFDF91CF9131
:1004100008951F920F920FB60F9211248F939F93FE
:100420008091A9019091AA0101969093AA018093CD
:10043000A90181E08093AB019F918F910F900FBE36
:100440000F901F90189583E0BBD6CDD68BE590E03A
:1004500097BD86BD82E08FBD88E18EBD8EB582607E
:100460008EBD89B7846089BF80E090E09C01220F37
:10047000331FF901E45DFD4F11821082F901E4554B
:10048000FE4F1182108201968034910579F778949D
:100490000895EF92FF920F931F93CF93DF931092E3
:1004A000AA011092A90183E08BD61092AB01C0E0A3
:1004B000D0E0E12CF12C00E014E08091AB01882326
:1004C000E1F31092AB0186D6801791070CF48C01F2
:1004D000E816F9060CF47C019701201B310B37FF5D
:1004E00002C02F5F3F4F35952795200F311F821B8C
:1004F000930B9E01220F331FF901E45DFD4F9183A1
:100500008083F901E455FE4F118210822196C03498
:10051000D10599F6DF91CF911F910F91FF90EF9048
:10052000089560E470E08CE292E0BDD146E050E0D6
:100530006CEA71E08CE292E064C32F923F924F929A
:100540005F926F927F928F929F92AF92BF92CF9263
:10055000DF92EF92FF920F931F93CF93DF93CDB76C
:10056000DEB7DA950FB6F894DEBF0FBECDBF80E8D8
:10057000E0E6F0E0DE01AF57BF4F01900D928A95A3
:10058000E1F780E8E0EEF0E0DE01119601900D92D7
:100590008A95E1F7CE018F579F4F5C01FE0131969E
:1005A0004F0100E010E0F501419051906190719091
:1005B0005F016801CC0CDD1CC601845D9D4F7C0190
:1005C000FC0160817181882777FD8095982F02D882
:1005D000A3019201FAD8CBD7F70171836083EFE3CF
:1005E000EE2EF12CE01AF10AEE0CFF1CC701845D1F
:1005F0009D4F1C01FC0160817181882777FD8095EA
:10060000982FE8D7A3019201E0D8B1D7F101718307
:100610006083F40141905190619071904F01C60147
:1006200084559E4F6C01FC0160817181882777FDA4
:100630008095982FCFD7A3019201C7D898D7F601FC
:1006400071836083C70184559E4F7C01FC016081EA
:100650007181882777FD8095982FBCD7A3019201DF
:10066000B4D885D7F701718360830F5F1F4F0032C5
:10067000110509F098CFD3950FB6F894DEBF0FBEE1
:10068000CDBFDF91CF911F910F91FF90EF90DF9041
:10069000CF90BF90AF909F908F907F906F905F9022
:1006A0004F903F902F900895AF92BF92CF92DF92DC
:1006B000EF92FF920F931F93CF93DF938C01C0E0D3
:1006C000D0E0FE01EE0FFF1FDF01A45DBD4F2D91B5
:1006D0003C9111970D90BC91A02DE455FE4FA08048
:1006E000B180408151817FD96B017C019501DA0194
:1006F0007AD9C60ED71EE81EF91EBCE0F594E79421
:10070000D794C794BA95D1F7C701B60163D7C4D8B7
:100710009B01AC015CD6F801619371938193919335
:100720008F012196C132D10561F6DF91CF911F91E2
:100730000F91FF90EF90DF90CF90BF90AF90089512
:100740008091A9019091AA0108958F929F92AF92F2
:10075000BF92CF92DF92EF92FF92CF93DF9340E070
:1007600050E0E0E0F0E0EA01CC0FDD1FDE01A45D27
:10077000BD4F2D913C9111970D90BC91A02DC4556A
:10078000DE4FA880B9800990D881C02D2CD96B018B
:100790007C019501DE0127D9C60ED71EE81EF91E81
:1007A0009CE0F594E794D794C7949A95D1F7EC0D13
:1007B000FD1D4F5F5F4F41325105A9F6BF01660F26
:1007C000771F80E090E004D767D8D1D64B015C0159
:1007D0002AE63CEB44E75FE36091A5017091A60136
:1007E0008091A7019091A801F0D76B017C0182E074
:1007F000881A9108B401882777FD8095982FEAD64A
:1008000020E639E344E35DE3E0D79B01AC01C70197
:10081000B601DDD56B017C0120E030E0A9013BD6BB
:1008200087FD09C0C092A501D092A601E092A70160
:10083000F092A80108C01092A5011092A601109292
:10084000A7011092A8016091A5017091A601809165
:10085000A7019091A8018BD6CB01DF91CF91FF909A
:10086000EF90DF90CF90BF90AF909F908F900895C2
:10087000CF92DF92EF92FF920F931F93670178015F
:100880000ED658D720E030E040EA51E49ED7A701C9
:1008900096019DD56CD6CB011F910F91FF90EF90E3
:1008A000DF90CF900895EF92FF920F931F93CF9315
:1008B000DF938B0101501109DC0120E030E0E1E021
:1008C000F0E00E171F0734F1AB0155954795E9018C
:1008D000C40FD51F0C171D07C4F3EA0121972C2361
:1008E0003D23240F351FE217F3078CF412964D9128
:1008F0005C911397E901CC0FDD1FC80FD91FE88069
:10090000F9801396FC92EE921297598348833196A0
:100910001296D7CFDF91CF911F910F91FF90EF905B
:1009200008952F923F924F925F926F927F928F9293
:100930009F92AF92BF92CF92DF92EF92FF920F936E
:100940001F93CF93DF93CDB7DEB72A970FB6F894F6
:10095000DEBF0FBECDBF9A878987DB01FC01828194
:100960009381208131814901880E991E281B390B02
:100970008681978164817581AB01480F591F7B0186
:10098000E81AF90AFA82E982628573852084318443
:10099000C101860F971F261A370A66857785048559
:1009A00015856801C60ED71EF801E61BF70BFC8300
:1009B000EB83B401640F751F841A950AAC014C0DCA
:1009C0005D1D7C01EC18FD086701CB01840F951FAC
:1009D000E985FA8591838083641B750B7187608735
:1009E00012964D915C9113974D905C901197C201B6
:1009F000840F951F441A550A16964D915C911797CE
:100A000014960D911C911597B801640F751F78010C
:100A1000E41AF50AFE82ED821A96ED91FC911B977D
:100A200018966D907C901997A3014E0F5F1F6E1A58
:100A30007F0A1E96ED91FC911F971C96AD90BC907D
:100A40001D977501EE0EFF1EAE1ABF0AFC01E60FE0
:100A5000F71F861B970BBA016E0D7F1D8A010E19B9
:100A60001F0918870F837F01E60EF71E1196FC926F
:100A7000EE92E61BF70B1996FC93EE931897810103
:100A80004B815C81041B150B45EBE42EF12CB70167
:100A90001702502D069F412D1603400D511D700366
:100AA000400D511D1124B901640F751F241B350B16
:100AB0007301EA0CFB1C870145EB50E01502F02D99
:100AC000049FE12D1403E00DF11D5003E00DF11D15
:100AD0001124ED80FE80EE0EFF1E0D811E810E1B87
:100AE0001F0BAB014E0D5F1DE985FA8557874687C1
:100AF0006E197F09738362836F817885680D791D14
:100B000075876487EF80F8848E189F0895828482A9
:100B1000A901400F511F57834683201B310B338798
:100B20002287A3014A195B0965EB70E05702302D5B
:100B3000469F212D5603200D311D7403200D311DBC
:100B40001124B201620F731F421A530A4B815C8158
:100B5000420D531D25EB30E05302102D429F012D15
:100B60005203000D111D3403000D111D1124A801A5
:100B700029813A81421B530B319521953109201B64
:100B8000310BFB01E20FF31F1F96FC93EE931E97B0
:100B9000621B730B13967C936E9312979C012C1916
:100BA0003D091D963C932E931C978C0D9D1D15960B
:100BB0009C938E931497C201840F951F17969C9354
:100BC0008E931697441A550A1B965C924E921A976A
:100BD0002A960FB6F894DEBF0FBECDBFDF91CF913E
:100BE0001F910F91FF90EF90DF90CF90BF90AF904B
:100BF0009F908F907F906F905F904F903F902F903D
:100C000008952F923F924F925F926F927F928F92B0
:100C10009F92AF92BF92CF92DF92EF92FF920F938B
:100C20001F93CF93DF93CDB7DEB7EE970FB6F8944F
:100C3000DEBF0FBECDBF8F87988B698B7A8B5887AD
:100C40004F8381E090E0A0E0B0E00F8004C0880F07
:100C5000991FAA1FBB1F0A94D2F79E878D873A015E
:100C600021E06222772440FD06C04F845888DB01D2
:100C700080E090E01CC0CF84D88809891A89E12CD3
:100C8000F12C2D853E85E216F30664F4B801C60109
:100C900048DE38E0E30EF11C40E1C40ED11C005FD9
:100CA0001F4FEFCF430134E0830E911C66C02D85AA
:100CB0003E8582179307B4F7F20122813381408188
:100CC00051815A01A20EB31E421B530B268137815C
:100CD000048115814801820E931E021B130B12968C
:100CE0002D913C911397ED90FC901197F701E20F35
:100CF000F31FE21AF30A1496CD90DC90159716961E
:100D00002D913C911797B9016C0D7D1D2C193D0952
:100D10006701C00ED11E1396DC92CE921297E01A94
:100D2000F10A1796FC92EE9216978F01060F171F85
:100D300011961C930E93E61BF70B1596FC93EE93FE
:100D40001497BA01620F731FF20173836283421B0F
:100D5000530B578346839501280D391D318320831A
:100D6000A818B908B582A4820496F8E04F0E511C69
:100D700018969DCF32E0830E911C4F8158854815FF
:100D800059050CF404C201E010E020E030E0082C2A
:100D900004C0000F111F221F331F0A94D2F71C8BAF
:100DA0000B8B380175946794759467944F854983CC
:100DB00058895A8369896B837A897C8380E091E0C2
:100DC000B801E2D5CB01880F991F9EAB8DABF0E83F
:100DD0004F2EF0E05F2EDB01AA0FBB1FAA0FBB1F37
:100DE000B8AFAFAB86E0869FA001879F500D11245E
:100DF0005CAB4BABD801AA0FBB1FBE8BAD8B930175
:100E0000220F331F388F2F8BA301440F551F440F20
:100E1000551F5E8F4D8F869DB001879D700D1124EB
:100E20007CA36BA3120162011A86198629853A8573
:100E3000261537050CF09ECFF201A591B491B8A705
:100E4000AFA3F601259134913AA729A7F101459165
:100E500054915CA74BA7F201E058FF4F6591749144
:100E60007EA76DA7F601E058FF4F8591949198AB4E
:100E70008FA7F101E058FF4FA591B491BAABA9AB90
:100E8000AB81BC8129813A813AAF29AF1C861B8690
:100E9000EB85FC852D853E85E217F3070CF058C1E4
:100EA0004F89588D4A0F5B1F5A8F498FFA01408135
:100EB00051812F89388D69AD7AAD260F371F3C8F50
:100EC0002B8FF901208131816FA578A93702902DF0
:100ED000269F812D3603800D911D7203800D911D7B
:100EE00011247C0169A57AA55702902D469F812D7A
:100EF0005603800D911D7403800D911D1124E81A75
:100F0000F90A6FA578A95702902D469F812D5603A7
:100F1000800D911D7403800D911D11249CAF8BAF2A
:100F200049A55AA53502902D249F812D3403800DAB
:100F3000911D5203800D911D11246BAD7CAD680F86
:100F4000791F7CAF6BAF8D8D9E8D8A0F9B1F98A3F1
:100F50008F8FFC01408151812D8D3E8D69AD7AAD21
:100F6000260F371F3AA329A3F901208131816DA5EE
:100F70007EA53702902D269F812D3603800D911D71
:100F80007203800D911D11249E838D836FA178A51E
:100F90005702902D469F812D5603800D911D74039D
:100FA000800D911D1124ED81FE81E81BF90BFE835C
:100FB000ED836DA57EA55702102D469F012D56038A
:100FC000000D111D7403000D111D11244FA158A512
:100FD0003502902D249F812D3403800D911D5203E5
:100FE000800D911D1124080F191F6BA17CA16A0FA0
:100FF0007B1F7EA36DA3FB01608171812BA13CA1AE
:1010000049AD5AAD240F351F3EAF2DAFF9014081D8
:10101000518129A93AA95302902D429F812D520353
:10102000800D911D3403800D911D11245C012BA5B1
:101030003CA57302902D629F812D7203800D911D3E
:101040003603800D911D1124A81AB90A29A93AA9BD
:101050007302902D629F812D7203800D911D3603C6
:10106000800D911D11242BA53CA55302702D429F8C
:10107000612D5203600D711D3403600D711D11242B
:10108000860F971FAC01401B510B800F911FE9ADDC
:10109000FAAD608171818B010E191F096E0D7F1DE4
:1010A0007801E40EF51EEB8DFC8DF182E082041BCD
:1010B000150BEDADFEAD118300830D811E810A1964
:1010C0001B094D815E814A0D5B1D2D913C9111974D
:1010D0007901EBADFCADEE1AFF0A2E0F3F1F570151
:1010E000A00EB11EE98DFA8DB182A082E01AF10A3C
:1010F000EDA1FEA1F182E0828B01040F151FE9AD85
:10110000FAAD11830083641B750BE9A1FAA1718309
:101110006083A901480F591F11965C934E93281BB9
:10112000390BEF8DF8A1318320832B853C854B89CA
:101130005C89240F351F3C872B8769AD7AAD8D897B
:101140009E89680F791F7AAF69AFA80FB91FA0CE2B
:1011500049855A854F5F5F4F5A87498729813A8170
:101160002E5F3F4F3A8329834B815C814E5F5F4FF7
:101170005C834B836DA97EA9460E571E8FA998AD3F
:10118000C80ED91EABA9BCA92A0E3B1E4FCEEE96A7
:101190000FB6F894DEBF0FBECDBFDF91CF911F9188
:1011A0000F91FF90EF90DF90CF90BF90AF909F9006
:1011B0008F907F906F905F904F903F902F90089509
:1011C000379897B1987F97B997B18770892B87B96E
:1011D000379A0895369A349BFECF84B195B1349AEC
:1011E0000895EEDFF7CF17B816B887B187B9329AEE
:1011F0003D98379A0895CF93C7B186E0E1DF3798DD
:101200003B9A379A87EE93E00197F1F700C0000010
:10121000E1DF3798C7B9379A9C0140E050E060E0C1
:1012200070E584E190E0C3D3CA01B901D3D120E0D5
:1012300030E04AE754E433D1CF910895CF92DF9262
:10124000EF92FF929C010097A1F06B01E12CF12C31
:10125000C701B6014AE0660F771F881F991F4A959C
:10126000D1F740E050E0A3D32C193D094E095F09A6
:1012700003C020E030E0A901CA01B901FF90EF905E
:10128000DF90CF900895CF93DF9300D000D0CDB7FB
:10129000DEB79A01AB01009799F0BC0180E090E0C5
:1012A00029833A834B835C8393D129813A814B8193
:1012B0005C818BD220E030E040E85AE386D203C064
:1012C00060E070E0CB010F900F900F900F90DF91D6
:1012D000CF91089542E2469F9001479F300D11241F
:1012E0004EE1BC01469FC001479F900D1124280F7D
:1012F000391FC90156E0969587955A95E1F70895EB
:10130000CF93DF93CDB7DEB7C458D1090FB6F894A9
:10131000DEBF0FBECDBF87E690E01FD878946BDFAD
:101320002B013C0190D8CE0101965C0184E8F501C7
:1013300011928A95E9F74E01F5E88F0E911CA9D814
:10134000F0D8FBD8C501B0D900DA6C01181619061F
:1013500024F4B301A20197DF04C066E976E285EACE
:1013600099E3E12CF12C00E012E426E936E245EAAB
:1013700059E37EDA1C018501780120E030E048EC79
:1013800052E4F80160817181828193811ED2F8015B
:1013900061937193819391938F01EED0862F0FD833
:1013A000F7016081718182819381E6D0872F07D810
:1013B0000815190509F78C2D02D88D2D00D8822D1E
:1013C000FED7832DFCD78AE0FAD7B9CF5058BB2778
:1013D000AA270ED075C166D130F06BD120F031F460
:1013E0009F3F11F41EF45BC10EF4E095E7FB51C181
:1013F000E92F77D180F3BA1762077307840795073F
:1014000018F071F49EF58FC10EF4E0950B2EBA2FF3
:10141000A02D0B01B90190010C01CA01A0011124FA
:10142000FF27591B99F0593F50F4503E68F11A16A6
:10143000F040A22F232F342F4427585FF3CF469537
:1014400037952795A795F0405395C9F77EF41F1659
:10145000BA0B620B730B840BBAF09150A1F0FF0F23
:10146000BB1F661F771F881FC2F70EC0BA0F621F0F
:10147000731F841F48F4879577956795B795F795FF
:101480009E3F08F0B3CF9395880F08F09927EE0F91
:10149000979587950895D9D008F481E008950CD0E8
:1014A0000FC107D140F0FED030F021F45F3F19F0BA
:1014B000F0C0511139C1F3C014D198F39923C9F385
:1014C0005523B1F3951B550BBB27AA27621773074A
:1014D000840738F09F5F5F4F220F331F441FAA1FFE
:1014E000A9F333D00E2E3AF0E0E830D091505040BE
:1014F000E695001CCAF729D0FE2F27D0660F771F6C
:10150000881FBB1F261737074807AB07B0E809F04D
:10151000BB0B802DBF01FF2793585F4F2AF09E3FE2
:10152000510568F0B6C000C15F3FECF3983EDCF3B4
:10153000869577956795B795F7959F5FC9F7880F5B
:10154000911D9695879597F90895E1E0660F771FAD
:10155000881FBB1F621773078407BA0720F0621B3E
:10156000730B840BBA0BEE1F88F7E095089504D037
:101570006894B111D9C00895BCD088F09F5790F0FD
:10158000B92F9927B751A0F0D1F0660F771F881FA8
:10159000991F1AF0BA95C9F712C0B13081F0C3D0C3
:1015A000B1E00895C0C0672F782F8827B85F39F061
:1015B000B93FCCF3869577956795B395D9F73EF407
:1015C00090958095709561957F4F8F4F9F4F0895AF
:1015D000E89409C097FB3EF49095809570956195CD
:1015E0007F4F8F4F9F4F9923A9F0F92F96E9BB2783
:1015F0009395F695879577956795B795F111F8CFFF
:10160000FAF4BB0F11F460FF1BC06F5F7F4F8F4F69
:101610009F4F16C0882311F096E911C0772321F05F
:101620009EE8872F762F05C0662371F096E8862FF7
:1016300070E060E02AF09A95660F771F881FDAF74E
:10164000880F9695879597F90895990F0008550F7B
:10165000AA0BE0E8FEEF16161706E807F907C0F038
:1016600012161306E407F50798F0621B730B840B40
:10167000950B39F40A2661F0232B242B252B21F41A
:1016800008950A2609F4A140A6958FEF811D811DBA
:10169000089597F99F6780E870E060E008959FEFF4
:1016A00080EC089500240A941616170618060906F9
:1016B000089500240A9412161306140605060895C8
:1016C000092E0394000C11F4882352F0BB0F40F450
:1016D000BF2B11F460FF04C06F5F7F4F8F4F9F4F90
:1016E000089557FD9058440F551F59F05F3F71F012
:1016F0004795880F97FB991F61F09F3F79F0879579
:101700000895121613061406551FF2CF4695F1DF01
:1017100008C0161617061806991FF1CF8695710591
:10172000610508940895E894BB2766277727CB01C5
:1017300097F908950AD029ED3BE54EED5EE345C0EB
:101740000EF0E8C0ACCF6894A4CFD3DFC8F39923E0
:10175000D1F3C6F3DF93CF931F930F93FF92C92F5B
:10176000DD2788232AF02197660F771F881FDAF775
:1017700020E030E040E85FEB9FE3883920F0803ED6
:1017800030F021968F7723DEE6E2F0E003C01FDE23
:10179000E3E5F0E0D4D08B01BE01EC01FB2E6F57E6
:1017A00071097595771F880B990B14DF28E132E7D3
:1017B00041E35FE316D0AF2D9801AE01FF900F918A
:1017C0001F91CF91DF9114DE7BCF0BD079CF6ADFF1
:1017D00028F06FDF18F0952309F05BCF60CF11245C
:1017E000A3CF7FDFA0F3959FD1F3950F50E0551F56
:1017F000629FF001729FBB27F00DB11D639FAA2766
:10180000F00DB11DAA1F649F6627B00DA11D661FB4
:10181000829F2227B00DA11D621F739FB00DA11DD5
:10182000621F839FA00D611D221F749F3327A00D8F
:10183000611D231F849F600D211D822F762F6A2F2B
:1018400011249F5750408AF0E1F088234AF0EE0FB0
:10185000FF1FBB1F661F771F881F91505040A9F7BD
:101860009E3F510570F015CF5FCF5F3FECF3983E80
:10187000DCF3869577956795B795F795E7959F5F24
:10188000C1F7FE2B880F911D9695879597F90895BE
:1018900011F40EF404CF3EC02CDFD0F39923D9F31A
:1018A000CEF39F57550B87FF43D00024A0E640EAB4
:1018B000900180585695979528F4805C660F771FA5
:1018C000881F20F026173707480730F4621B730B78
:1018D000840B202931294A2BA6951794079420259B
:1018E00031254A2758F7660F771F881F20F02617E3
:1018F0003707480730F4620B730B840B200D311D42
:10190000411DA09581F7B901842F9158880F9695B4
:10191000879508959F3F31F0915020F487957795F2
:101920006795B795880F911D9695879597F90895B6
:1019300091505040660F771F881FD2F70895DF93AC
:10194000CF931F930F93FF92EF92DF927B018C0155
:10195000689405C0DA2EEF0144DFFE01E894A591FA
:101960002591359145915591AEF3EF0141DDFE0191
:101970009701A801DA9479F7DF90EF90FF900F912B
:101980001F91CF91DF91089597FB072E16F40094D5
:1019900006D077FD08D03FD007FC05D03EF49095E7
:1019A00081959F4F0895709561957F4F0895052EFD
:1019B00097FB16F400940FD057FD05D040D007FCDC
:1019C00002D046F408C050954095309521953F4F80
:1019D0004F4F5F4F089590958095709561957F4F1B
:1019E0008F4F9F4F089505D0332312F48A1B9B0B12
:1019F0000DC0A29FB001B39FC001A39F01D0B29FB1
:101A0000700D811D1124911D0895F3DFB7FF089516
:101A1000821B930B0895AA1BBB1B51E107C0AA1F91
:101A2000BB1FA617B70710F0A61BB70B881F991F7F
:101A30005A95A9F780959095BC01CD010895A1E232
:101A40001A2EAA1BBB1BFD010DC0AA1FBB1FEE1F38
:101A5000FF1FA217B307E407F50720F0A21BB30B83
:101A6000E40BF50B661F771F881F991F1A9469F7FF
:101A700060957095809590959B01AC01BD01CF015B
:061A80000895F894FFCF69
:101A86000000000009B2143DD290033F5CD7573FD7
:101A9600C3F4823F9D7E8E3FEF4C933F5EE3933FC0
:101AA600A696913FFF228D3F52F6863FDFAA7E3FE4
:101AB600ACDF6C3F10D6583F8DD3423F78222B3F88
:101AC6003E1A123FE24CF03E7999BB3E9562873E44
:101AD600A6612A3EC81D9B3D7B7377BBAD178CBDA7
:101AE6009A2DEBBD1F3010BE695815BEDF0607BE26
:101AF600FFFCD3BD34138BBDCEB709BDB2D912BC22
:101B0600000000009356013F8F582C3FD724103F0A
:101B1600EDF7C73E71D6613EC347883D3CFC90BD9C
:101B260064F445BEC00B9BBE3916CDBE4870F9BEE7
:101B3600181810BFFF9B20BF15202EBFB77038BFE7
:101B46007E4F3FBF617942BF93AE41BFD8BC3CBF19
:101B5600C98C33BFED3126BFB5FC14BFC98B00BF9E
:101B660022B0D3BEA869A4BE25F06CBE10821ABEF0
:101B76001E2DAFBDA27020BD63F449BCC887D1BA83
:00000001FF
